:100000000EC01DC02CC01BC01AC019C018C017C01C
:1000100016C015C014C013C012C011C010C01124E6
:100020001FBECFE5D2E0DEBFCDBF20E0A0E6B0E04E
:1000300001C01D92A136B207E1F717D093C0E0CFFF
:100040001092600085B7877E806185BF85B780622A
:1000500085BF7894889585B78F7D85BF08958F93E8
:1000600081E0809360008F91189587B3876087BB8C
:10007000C198C298C09887B3877E87BBC39A8BB755
:1000800080628BBF85B3886185BB789486B3C82FA7
:10009000C87083FD2EC0C19AB39B33C0C09A8FE451
:1000A00093EC0197F1F700C00000C09888EE93E050
:1000B00026B32071C22B19F0B49B2FC0C1E0E3EC32
:1000C000F9E03197F1F700C00000019789F784E16A
:1000D000C29AE3EDF0E33197F1F700C00000C29857
:1000E000E3EDF0E33197F1F700C00000815081F7B4
:1000F0002BC0A6DF83EC99E00197F1F700C0000068
:10010000C5CF8827B4998395C82B9ADFE3ECF9E033
:100110003197F1F700C00000BFCF85E0C29AFFE938
:1001200026E831E0F15020403040E1F700C0000007
:10013000C2989FE9E6E8F1E09150E040F040E1F735
:1001400000C00000815051F7C198FFE926E831E076
:10015000F15020403040E1F700C00000B39996CF45
:08016000C19A94CFF894FFCF7F
:00000001FF
