:1000000028C04CC014C24AC049C083C247C046C0C1
:1000100045C044C043C042C041C040C03FC00102CF
:100020000000040000000000000000003700000095
:100030000000360000000000380002020202020246
:100040000202020201020408102020041008D1025A
:10005000F90311241FBECFE5D2E0DEBFCDBF10E013
:10006000A0E6B0E0E6E7F8E002C005900D92AA3BFA
:10007000B107D9F721E0AAEBB0E001C01D92A6328A
:10008000B207E1F710E0C8E2D0E003C02197FE011B
:10009000E0D3C732D107D1F7E8D2E1C3B1CF90E0C6
:1000A00080E0089520910501309106012817390755
:1000B000B9F49091030180910401981789F0E091BF
:1000C0000301F0E0ED53FF4F80812091030130E008
:1000D0002F5F3F4F2F7333272093030190E0089544
:1000E0008FEF9FEF089520910501309106012817A9
:1000F000390769F4809104012091030190E0805C4C
:100100009F4F821B910960E470E07CD3089580E0EA
:1001100090E008951F93CF93DF93DC015C968D915F
:100120009C915D97009751F421E030E013963C9349
:100130002E931297DF91CF911F9108955196ED91D3
:10014000FC91529750962C915097322F30951FB7B3
:100150005E964C915E97742F727041FD6095F89495
:1001600040817723F9F0422B4083EC012197F1F78E
:1001700048E0508160FF18C0522B5083EC0121975A
:10018000F1F766954150A9F78081772379F08323B1
:1001900080831FBF5C968D919C910197F1F781E060
:1001A00090E0C8CF4323E0CF5323E7CF822BF0CF9B
:1001B000089520910501309106012817390771F43F
:1001C0009091030180910401981741F0E09103019F
:1001D000F0E0ED53FF4F808190E008958FEF9FEFA7
:1001E0000895CF93DF9300D000D0CDB7DEB73FB7EF
:1001F000F8948091BA009091BB00A091BC00B0919E
:10020000BD0022B708B601FE05C02F3F19F00196C8
:10021000A11DB11D3FBFBA2FA92F982F8827820F8C
:10022000911DA11DB11D9C01AD0163E0220F331F83
:10023000441F551F6A95D1F7CA01B9010F900F905D
:100240000F900F90DF91CF910895CF93DF9390E0BF
:10025000FC01EC5BFF4F2491865C9F4FFC01849175
:100260008823D1F090E0880F991FFC01E85DFF4FD3
:10027000A591B491FC01EC5CFF4FC591D4919FB75F
:1002800061110DC0F8948C91E22FE0958E238C9330
:1002900088818E2388839FBFDF91CF910895F89442
:1002A0008C91822B8C93F7CF90E0FC01E25EFF4FA4
:1002B0003491FC01EC5BFF4F2491FC01E65CFF4FA5
:1002C000E491EE23C9F0332339F03330C1F0A8F4C0
:1002D0003130C9F03230D9F0F0E0EE0FFF1FEC5CA6
:1002E000FF4FA591B4919FB7F8948C91611112C002
:1002F000209528232C939FBF0895343069F78CB53F
:100300008F7D8CBDE9CF8AB58F778ABDE5CF8AB561
:100310008F7DFBCF822B8C93EECFCF92DF92EF922B
:10032000FF920F931F93CF93DF937C016A0110E03C
:1003300000E00C151D0551F4C801DF91CF911F910C
:100340000F91FF90EF90DF90CF900895EB01D701D0
:10035000ED91FC910190F081E02D6991C701099523
:10036000892B51F30F5F1F4FBE01E3CF8F929F92F6
:10037000AF92BF92CF92DF92EF92FF92CF93DF9333
:1003800000D000D0CDB7DEB72CDF6B017C0180ED53
:10039000882E87E0982EA12CB12C23DFDC01CB0125
:1003A0008C199D09AE09BF09883E9340A105B1058E
:1003B000A0F321E0821A9108A108B10888EEC80EC6
:1003C00083E0D81EE11CF11C81149104A104B10446
:1003D00021F70F900F900F900F90DF91CF91FF902A
:1003E000EF90DF90CF90BF90AF909F908F90089547
:1003F000E0910501F0910601E817F90759F4A38986
:10040000B4899C918589809589238C9310920601EB
:10041000109205010895BC01FC0101900020E9F74C
:100420003197AF01481B590B87E091E076CF2F93AE
:100430002FB72F933F934F935F938F939F93AF93D8
:10044000BF93CF93DF93EF93FF93E0910501F0917A
:100450000601309709F44AC0A685B7858585968D33
:1004600091FF40C09C91892309F440C0A389B489BD
:100470009C918589809589238C938689978901979A
:10048000F1F7408D518DC685D785358588E020E010
:10049000DA011197F1F726959881932309F02068E6
:1004A0008150B1F7868D81FD20958091040190E007
:1004B00001968F73992730910301381731F1A0917C
:1004C0000401B0E0AD53BF4F2C9380930401828DA3
:1004D000938D0197F1F7A389B4898C919589892B24
:1004E0008C9304C09C91892309F4C0CFFF91EF91B4
:1004F000DF91CF91BF91AF919F918F915F914F917C
:100500003F912F912FBF2F911895868D8160868FF7
:10051000DECF1F921FB61F9211242F933F938F930C
:100520009F93AF93BF938091BF009091C000A09123
:10053000C100B091C2003091BE0026E0230F2D37DC
:1005400050F50296A11DB11D2093BE008093BF00FF
:100550009093C000A093C100B093C2008091BA00F4
:100560009091BB00A091BC00B091BD000196A11D6F
:10057000B11D8093BA009093BB00A093BC00B093D0
:10058000BD00BF91AF919F918F913F912F911F908F
:100590001FBE1F90189529E8230F0396A11DB11DBA
:1005A000D3CF10920A011092090188EE93E0A0E0E7
:1005B000B0E080930B0190930C01A0930D01B093D8
:1005C0000E0186E690E09093080180930701109257
:1005D0001E0110921D011092200110921F01109215
:1005E0002201109221011092240110922301809186
:1005F00025018C7F8093250161E081E055DE61E07B
:1006000081E023DEE5E4F0E0E491E0931701EBE321
:10061000F0E0E491F0E0EE0FFF1FEC5CFF4F8591FE
:100620009491909319018093180160E080E00DDEB1
:100630008091250181FD03C061E080E035DE1092EC
:100640001301E4E4F0E0E491E0931401EAE3F0E064
:10065000E491F0E0EE0FFF1FE25DFF4F8591949172
:100660009093160180931501089578948AB582605D
:100670008ABD8AB581608ABD83B7826083BF83B734
:10068000816083BF89B7826089BF80B7826080BF85
:1006900080B7816080BF329A319A3098379A8CB592
:1006A00080648CBD60E080E0D0DD61E081E0CDDD84
:1006B00010922201109221011092200110921F012C
:1006C00010921E0110921D018DEC90E09093240178
:1006D0008093230130911301353008F047C045E580
:1006E00050E050931E0140931D014BEC50E050939D
:1006F000200140931F0140E950E0509322014093B4
:1007000021012BB720622BBF45E350E050931B0122
:1007100040931A0121E001C0220F3A95EAF7209395
:100720001C010197F1F7809105019091060121E0EC
:1007300087309207D9F0009709F05ADE80912501A1
:100740008E7F80932501109204011092030187E0AF
:1007500091E09093060180930501E0911A01F091D8
:100760001B01808190911C01892B808384E790E09C
:1007700052DE82E890E04FDE86E990E04CDEF6DD66
:1007800084EA90E048DEF2DD61E084E05EDD6091C5
:10079000600084E089DDC0E0D0E011E087E091E016
:1007A000A2DC892B71F087E091E07CDC803391053D
:1007B00061F410926000109261006091600084E02A
:1007C00073DD209759F31CDCE9CF8133910519F4CF
:1007D00010936000F0CFC29781F781E02091600014
:1007E000309161002130310509F480E08093600090
:1007F000E2CF86E690E0909308018093070187E0BE
:1008000091E0F6CD97FB072E16F4009406D077FD05
:1008100008D00BD007FC05D03EF4909581959F4FF2
:100820000895709561957F4F0895AA1BBB1B51E1F8
:1008300007C0AA1FBB1FA617B70710F0A61BB70B50
:10084000881F991F5A95A9F780959095BC01CD01F5
:100850000895EE0FFF1F0590F491E02D099410E02C
:10086000C8E2D0E003C0FE01F4DF2196C932D1070F
:06087000D1F7F894FFCF60
:100876000100000000008A008D014F00D8007300BF
:100886005200D9000D0A2B5354574D4F443D300D9D
:100896000A000D0A2B53544E413D4D4152435F48C9
:1008A6004330360D0A000D0A2B53544F4155543D23
:1008B600310D0A00626C7565746F6F746820636F22
:0A08C6006E6E6563746564210A001C
:00000001FF
